S0110000446562756767696E672E7372656387
S113000071C0000081C000007FC000007DC00000FE
S11300107BC0000079C0000077C0000075C00000FC
S113002073C0000071C000006FC000006DC000000C
S11300306BC0000069C0000067C0000065C000001C
S113004063C0000061C000005FC000005DC000002C
S11300505BC0000059C0000057C0000055C000003C
S113006053C0000051C000004FC000004DC000004C
S11300704BC0000049C0000047C0000045C000005C
S113008043C0000041C000003FC000003DC000006C
S11300903BC0000039C0000037C0000035C000007C
S11300A033C0000031C000002FC000002DC000008C
S11300B02BC0000029C0000027C0000025C000009C
S11300C023C0000021C000001FC000001DC00000AC
S11300D01BC0000019C0000017C0000015C00000BC
S11300E013C0000011241FBECFEFD1E2DEBFCDBF8D
S11300F000E00CBF22E0A0E0B2E001C01D92A130FC
S1130100B207E1F702D089C07BCFCF93DF931F9270
S1130110CDB7DEB781E089835CD080E290E0FC015A
S11301208081882F90E0809590958770992701971A
S1130130A1F706D0809100028F5F80930002EDCF7B
S1130140CF93DF9300D01F92CDB7DEB71B821C8202
S1130150198234C01A8217C08B818F5F8B8388E227
S113016090E02C81222F30E022953295307F322787
S1130170207F3227322F2B81232B2095FC012083D3
S11301808A818F5F8A838A818A3030F31B828C81D3
S11301908F5F8C8388E290E02C81222F30E02295BF
S11301A03295307F3227207F3227322F2B81232B29
S11301B02095FC01208389818F5F89838981863022
S11301C048F200000F900F900F900F90DF91CF91A5
S11301D00895CF93DF93CDB7DEB784E290E02FEF9D
S11301E0FC01208385E290E0FC01108281E290E032
S11301F0FC01108282E290E02FEFFC01208387E271
S113020090E02FEFFC01208388E290E02FEFFC01C7
S111021020830000DF91CF910895F894FFCF72
S9030000FC
