S00F0000554152544C43442E7372656306
S113000071C0000081C000007FC000007DC00000FE
S11300107BC0000079C0000077C0000075C00000FC
S113002073C0000071C000006FC000006DC000000C
S11300306BC0000069C0000067C0000065C000001C
S113004063C0000061C000005FC000005DC000002C
S11300505BC0000059C0000057C0000055C000003C
S113006053C0000051C000004FC000004DC000004C
S11300704BC0000049C0000047C0000045C000005C
S113008043C0000041C000003FC000003DC000006C
S11300903BC0000039C0000037C0000035C000007C
S11300A033C0000031C000002FC000002DC000008C
S11300B02BC0000029C0000027C0000025C000009C
S11300C023C0000021C000001FC000001DC00000AC
S11300D01BC0000019C000006FC1000015C0000063
S11300E013C0000011241FBECFEFD1E2DEBFCDBF8D
S11300F000E00CBF22E0A0E0B2E001C01D92A132FA
S1130100B207E1F777D099C17BCF1FBAF999FECF37
S113011092BD81BD60BD84E08FBBF99A0895F999C1
S1130120FECF92BD81BDF89A80B508958FEF80937C
S11301300A0110920B018AB987B988B91092040197
S11301400895813011F48BB901C01BB85A9A609399
S11301500B0187EC90E00197F1F700C000008BB130
S113016081708BB987EC90E00197F1F700C0000033
S1130170089583E290E0EDD068E380E0E2DF87EC6D
S113018090E00197F1F700C000006CE080E0D9DF57
S113019087EC90E00197F1F700C0000061E080E097
S11301A0D0DF82E090E0D5D066E080E0CACF089549
S11301B0FC0181E08BB980818823D9F0ABE0B1E008
S11301C05A9A9F012F5F3F4F80818C9387EC90E078
S11301D00197F1F700C000008BB181708BB987ECF7
S11301E090E00197F1F700C000008181F9018111CD
S11301F0E7CF0895CF93DF93CDB7DEB7E2970FB67D
S1130200F894DEBF0FBECDBF91DFB3DFB5D07894D5
S1130210CC24C394D12CCE0101967C01682E7F2C72
S113022080911F0290912002019721F12FC0FC01BF
S1130230ED5FFD4F6081C80168DF82E090E089D006
S1130240B3940F5F1F4F8B2D90E0FC01ED5FFD4FCA
S113025020812111ECCF1092200210921F02D09223
S11302600202C092010280911F0290912002019724
S113027021F00CC000E010E0B12C8B2D90E0FC01CB
S1130280ED5FFD4F20812111D2CFE5CF8091010296
S113029090910202019729F130C0C50140DFF701B6
S11302A0E00FF11F808382E090E053D053949FEFDE
S11302B0A91AB90A052D10E04701800E911EF40118
S11302C0808172D0F40180818F3F39F7109202024D
S11302D0109201028091010290910202019721F093
S11302E00CC0A12CB12C512C052D10E0F701E00F0E
S11302F0F11F80818F3F89F6E9CF80911C02909194
S11303001D02019709F08CCF10921D0210921C025D
S113031061E080E016DF82E090E01BD062E080E0E4
S113032010DF82E090E015D060EC80E00ADF862DDB
S1130330972D3EDF80911C0290911D02019721F3BD
S11303406FCF85E085BDA99BFECF15BCA99A16BCCD
S113035008950F931F93CF93DF93009741F08C017F
S1130360C0E0D0E0EEDF21960C171D07D9F7DF912E
S1130370CF911F910F91089510923001E1E3F1E0C4
S113038080818860808380818061808380818068AF
S11303908083E2E3F1E080818660808387E6809356
S11303A03401109235010895E0E3F1E0908195FF66
S11303B0FDCF8093360108951F920F920FB60F92CE
S11303C011240BB60F928F939F93EF93FF9381E0C9
S11303D090E09093200280931F02809136018093D5
S11303E00002809100028D3079F4E0911E02F0E069
S11303F0ED5FFD4F108210921E0281E090E0909319
S11304001D0280931C020DC0E0911E02F0E0809159
S11304100002ED5FFD4F808380911E028F5F809309
S11304201E0218B8FF91EF919F918F910F900BBE10
S11104300F900FBE0F901F901895F894FFCFF9
S9030000FC
