S00D000055534152542E7372656388
S113000071C000008EC000008CC000008AC00000D7
S113001088C0000086C0000084C0000082C00000C8
S113002080C000007EC000007CC000007AC00000D8
S113003078C0000076C0000074C0000072C00000E8
S113004070C000006EC000006CC000006AC00000F8
S113005068C0000066C0000064C0000062C0000008
S113006060C000005EC000005CC000005AC0000018
S113007058C0000056C0000054C0000052C0000028
S113008050C000004EC000004CC000004AC0000038
S113009048C0000046C0000044C0000042C0000048
S11300A040C000003EC000003CC000003AC0000058
S11300B038C0000036C0000034C0000032C0000068
S11300C030C000002EC000002CC000002AC0000078
S11300D028C0000026C00000D0C0000022C00000DC
S11300E020C0000011241FBECFEFD1E2DEBFCDBF80
S11300F000E00CBF12E0A0E0B2E0E0E1F3E000E0D9
S11301000BBF02C007900D92A030B107D9F722E0CF
S1130110A0E0B2E001C01D92A230B207E1F720D006
S1130120F5C06ECFCF93DF93CDB7DEB784E091E017
S1130130FC01108281E290E0FC01108282E290E0F6
S11301402FEFFC01208387E290E02FEFFC01208356
S113015088E290E0FC0110820000DF91CF910895C5
S1130160CF93DF931F92CDB7DEB70ED0DBDF789449
S113017083E28983898166D088E290E0209101023C
S11301802095FC012083F4CFCF93DF9300D000D0DF
S1130190CDB7DEB780E391E0FC01108281E391E00A
S11301A021E331E0F90120812860FC01208381E30F
S11301B091E021E331E0F90120812061FC012083F9
S11301C081E391E021E331E0F90120812068FC0121
S11301D0208382E391E022E331E0F901208126606B
S11301E0FC01208380E098E5A2E0B0E089839A8353
S11301F0AB83BC8380E094E2A4EFB0E029813A8130
S11302004B815C81BC01CD015FD0DA01C9018983D6
S11302109A83AB83BC8387E690E09E838D8384E3DB
S113022091E02D81FC01208385E391E0FC011082A3
S1130230000026960FB6F894DEBF0FBECDBFDF9147
S1130240CF910895CF93DF931F92CDB7DEB7898303
S1130250000080E391E0FC018081882F90E08072AF
S11302609927892BB1F386E391E02981FC0120834E
S113027000000F90DF91CF9108951F920F9200908C
S11302805F000F92112400905B000F928F939F9355
S1130290EF93FF93CF93DF93CDB7DEB786E391E07F
S11302A0FC018081809301020000DF91CF91FF91D6
S11302B0EF919F918F910F9000925B000F900092AD
S11302C05F000F901F901895A1E21A2EAA1BBB1B6A
S11302D0FD010DC0AA1FBB1FEE1FFF1FA217B3070E
S11302E0E407F50720F0A21BB30BE40BF50B661F24
S11302F0771F881F991F1A9469F7609570958095E8
S113030090959B01AC01BD01CF010895F894FFCFF6
S9030000FC
