S015000046696E616C2050726F6A6563742E737265632E
S113000071C000008EC000008CC000008AC00000D7
S113001088C0000086C0000084C0000082C00000C8
S113002080C000007EC000007CC000007AC00000D8
S113003078C0000076C0000074C0000072C00000E8
S113004070C000006EC000006CC000006AC00000F8
S113005068C0000066C0000064C0000062C0000008
S113006060C000005EC000005CC000005AC0000018
S113007058C0000056C0000054C0000052C0000028
S113008050C000004EC000004CC000004AC0000038
S113009048C0000046C0000044C0000042C0000048
S11300A040C000003EC000003CC000003AC0000058
S11300B038C0000036C0000034C0000032C0000068
S11300C030C000002EC000002CC000002AC0000078
S11300D028C0000026C000009BC3000022C000000E
S11300E020C0000011241FBECFEFD1E2DEBFCDBF80
S11300F000E00CBF12E0A0E0B2E0E0E2FCE000E0CF
S11301000BBF02C007900D92A839B107D9F722E0BE
S1130110A8E9B2E001C01D92A53BB207E1F7D0D037
S11301207DC56ECFE0E9F0E090E890838081826045
S11301308083E1E9F0E080818C618083E0E8F0E095
S11301409083808182608083E1E8F0E080818C612B
S1130150808308950F931F93CF93C62F813431F575
S1130160E0E9F0E0808180688083542F432F322FB0
S1130170222760E074E284EF90E015D5D90111974D
S1130180B0939700A09396002C2F30E02ED524E650
S113019030E040E050E007D5309399002093980078
S11301A0E1E9F0E080818460808376C0833431F5B6
S11301B0E0E8F0E0808180688083542F432F322F61
S11301C0222760E074E284EF90E0EDD4D901119726
S11301D0B0938700A09386002C2F30E006D524E648
S11301E030E040E050E0DFD4309389002093880071
S11301F0E1E8F0E08081846080834EC0843409F0BB
S11302004BC0E0E9F0E0808180688083542F432F65
S1130210322F222760E074E284EF90E0C4D4890195
S11302200150110910939700009396002C2F30E091
S1130230D801DBD424E630E040E050E0B4D430937D
S1130240990020939800E1E9F0E080818460808344
S1130250E0E2F1E0808180688083109327010093BD
S1130260260130939D0020939C00E1E2F1E080811F
S113027084608083E0E8F0E080818068808310936C
S11302808700009386003093890020938800E1E87A
S1130290F0E0808184608083CF911F910F91089555
S11302A08FEF80930A0110920B018AB980930101A8
S11302B08DB98EB984B985B91092040117B808951F
S11302C0CF93DF93CDB7DEB7CA59D1090FB6F894EF
S11302D0DEBF0FBECDBFE4DFEBD18AD1789422DF3D
S11302E087E5E0E0F2E0DE01119601900D928A9537
S11302F0E1F786E1E7E5F2E0DE01A85ABF4F01909D
S11303000D928A95E1F782E2EDE6F2E0DE01A25970
S1130310BF4F01900D928A95E1F788E0EFE8F2E093
S1130320DE01A057BF4F01900D928A95E1F7CE01EF
S113033080579F4FDDD120E030E0A90160E081E4E7
S113034009DF20E030E0A90160E082E403DF20E07F
S113035030E0A90160E083E4FDDEC656DF4F188279
S1130360CA59D04010E000E0812C912C5401C12CDA
S1130370D12C760129E932E0C856DF4F2883C859C9
S1130380D040C756DF4F3883C959D0402224239424
S1130390111112C069968FAD6997882309F423C19E
S11303A09FD11F5FE8E5F0E0EC0FFD1FE10FF11DA9
S11303B080818111F5CF17C1113089F48981882397
S11303C009F413C110E08CD11F5FE1E0F0E0EC0F01
S11303D0FD1FE10FF11D80818111F5CF06C112309F
S11303E039F4AF968FADAF97811109C014E005E0E1
S11303F08091B3029091B402019781F0A3C010E000
S11304006FD11F5FEEE6F0E0EC0FFD1FE10FF11D71
S113041080818111F5CF14E005E0EACF133099F41F
S1130420E9E9F2E08081FFEF26E731E0F150204076
S11304303040E1F700C00000833521F08D3419F419
S1130440122D01C012E0013031F4E9E9F2E030800C
S1130450832D46D13FC00230D9F4FFEF29EF30E0BD
S1130460F15020403040E1F700C00000C856DF4F93
S11304708881C859D040C756DF4F9881C959D040A8
S113048037D16C01990FEE08FF088C2D29D145C096
S1130490033001F58FEF99EFE0E081509040E040A8
S11304A0E1F700C00000C856DF4F8881C859D0402A
S11304B0C756DF4F9881C959D0401AD14C01990FC2
S11304C0AA08BB08882D0CD1C656DF4F2882CA590A
S11304D0D04023C0053009F5FFEF29EF30E0F1509B
S11304E020403040E1F700C00000C856DF4F88814B
S11304F0C859D040C756DF4F9881C959D040F8D069
S11305002C01092E000C6608770896D0C301B201AD
S1130510A7D0C301B201B8D003E08FEF91EEE4E0BD
S113052081509040E040E1F700C000000F5F10925E
S1130530B4021092B3028091B3029091B402019775
S113054009F46CCFC656DF4FF881CA59D040F13058
S113055029F4A50194016C2D832DFCDD043041F4B4
S113056021E0C656DF4F2883CA59D04010E000E08E
S113057030991EC020E43DE043E050E062E384E4AF
S1130580E9DD8AE590E058D00F2EF0E48F2EFDE0EF
S11305909F2EF3E0AF2EB12CF02D0F2EF2E3CF2ED1
S11305A0D12CE12CF12CF02D0F2EF4E43F2EF02D64
S11305B0319913C080E090E03FD020E030E0A90101
S11305C060E084E4C7DD812C912C5401C12CD12C32
S11305D076010F2EF4E43F2EF02D3399D9CE80E02E
S11305E090E02AD0D5CE13E003CF14E001E000CF91
S11305F0E0EAF0E08081826A8083E1EAF0E08081D1
S11306008B618083E2EAF0E080818066808387E802
S113061093E19093A7008093A60081E990E09093E2
S1130620A9008093A8009093AB008093AA009093B4
S1130630AD008093AC000895BC0180E090E0B3D19C
S113064026EF38E24CE150E43CD220E030E041E1D6
S113065053E419D17CD17093A9006093A800089544
S1130660BC0180E090E09FD126EF38E24CE150E4F9
S113067028D220E030E041E153E405D168D1709301
S1130680AB006093AA000895BC0180E090E08BD198
S113069026EF38E24CE150E414D220E030E041E1AE
S11306A053E4F1D054D17093AD006093AC0008953D
S11306B010923001E1E3F1E08081886080838081E1
S11306C080618083808180688083E2E3F1E08081BF
S11306D08660808387E68093340110923501089503
S11306E0E0E3F1E0908195FFFDCF8093360108951A
S11306F0CF92DF92EF92FF920F931F93CF93DF93EA
S1130700CDB7DEB76C970FB6F894DEBF0FBECDBF82
S1130710DC01FE013196CE014D964D9150E04053DF
S11307205109052E000C660B770B4193519361938D
S11307307193E817F90789F729813A814B815C8124
S113074060E472E48FE090E01FD26B017C012D81A4
S11307503E814F81588560EA76E881E090E014D2CA
S1130760C60ED71EE81EF91E898D9A8DAB8DBC8DE1
S1130770C80ED91EEA1EFB1E2D853E854F8558895D
S1130780A8EEB3E041D2C60ED71EE81EF91E298595
S11307903A854B855C85A0E1B7E236D2C60ED71EFA
S11307A0E81EF91E4D895E896F89788D440F551FA7
S11307B0661F771F8A019B01000F111F221F331F21
S11307C0000F111F221F331F400F511F621F731F81
S11307D0C40ED51EE61EF71E29893A894B895C8909
S11307E0A4E6B0E011D2DC01CB018C0D9D1DAE1D41
S11307F0BF1D6C960FB6F894DEBF0FBECDBFDF9160
S1130800CF911F910F91FF90EF90DF90CF900895BB
S11308101F920F920FB60F9211240BB60F928F9363
S11308209F93EF93FF9381E090E09093B4028093C1
S1130830B3028091360180939802809198028D30A2
S113084049F4E091B202F0E0E756FD4F10821092B5
S1130850B2020DC0E091B202F0E080919802E75636
S1130860FD4F80838091B2028F5F8093B202FF912B
S1130870EF919F918F910F900BBE0F900FBE0F9031
S11308801F9018955058BB27AA270ED0E0C0D1D08E
S113089030F0D6D020F031F49F3F11F41EF4C6C0DE
S11308A00EF4E095E7FBBCC0E92FE2D080F3BA1761
S11308B0620773078407950718F071F49EF5FAC070
S11308C00EF4E0950B2EBA2FA02D0B01B901900167
S11308D00C01CA01A0011124FF27591B99F0593FAB
S11308E050F4503E68F11A16F040A22F232F342FF3
S11308F04427585FF3CF469537952795A795F04041
S11309005395C9F77EF41F16BA0B620B730B840B55
S1130910BAF09150A1F0FF0FBB1F661F771F881F0D
S1130920C2F70EC0BA0F621F731F841F48F4879565
S113093077956795B795F7959E3F08F0B3CF939554
S1130940880F08F09927EE0F97958795089598D00A
S113095088F09F5790F0B92F9927B751A0F0D1F0A4
S1130960660F771F881F991F1AF0BA95C9F712C02E
S1130970B13081F09FD0B1E008959CC0672F782FEB
S11309808827B85F39F0B93FCCF38695779567959A
S1130990B395D9F73EF490958095709561957F4F06
S11309A08F4F9F4F0895E89409C097FB3EF49095AC
S11309B08095709561957F4F8F4F9F4F9923A9F034
S11309C0F92F96E9BB279395F695879577956795C3
S11309D0B795F111F8CFFAF4BB0F11F460FF1BC007
S11309E06F5F7F4F8F4F9F4F16C0882311F096E99A
S11309F011C0772321F09EE8872F762F05C0662348
S1130A0071F096E8862F70E060E02AF09A95660F00
S1130A10771F881FDAF7880F9695879597F90895B9
S1130A2097F99F6780E870E060E008959FEF80EC9D
S1130A30089500240A941616170618060906089540
S1130A4000240A9412161306140605060895092EA6
S1130A500394000C11F4882352F0BB0F40F4BF2B15
S1130A6011F460FF04C06F5F7F4F8F4F9F4F089555
S1130A7057FD9058440F551F59F05F3F71F047954B
S1130A80880F97FB991F61F09F3F79F08795089530
S1130A90121613061406551FF2CF4695F1DF08C04F
S1130AA0161617061806991FF1CF8695710561056C
S1130AB008940895E894BB2766277727CB0197F914
S1130AC008950BD0C4CFB5DF28F0BADF18F0952312
S1130AD009F0A6CFABCF1124EECFCADFA0F3959FC8
S1130AE0D1F3950F50E0551F629FF001729FBB2711
S1130AF0F00DB11D639FAA27F00DB11DAA1F649FBD
S1130B006627B00DA11D661F829F2227B00DA11D6F
S1130B10621F739FB00DA11D621F839FA00D611DF5
S1130B20221F749F3327A00D611D231F849F600D16
S1130B30211D822F762F6A2F11249F5750408AF04F
S1130B40E1F088234AF0EE0FFF1FBB1F661F771FDB
S1130B50881F91505040A9F79E3F510570F060CF17
S1130B60AACF5F3FECF3983EDCF3869577956795C3
S1130B70B795F795E7959F5FC1F7FE2B880F911DF9
S1130B809695879597F90895DB018F939F933CD0B1
S1130B90BF91AF91A29F800D911DA39F900DB29F15
S1130BA0900D11240895A1E21A2EAA1BBB1BFD016E
S1130BB00DC0AA1FBB1FEE1FFF1FA217B307E40738
S1130BC0F50720F0A21BB30BE40BF50B661F771F90
S1130BD0881F991F1A9469F7609570958095909570
S1130BE09B01AC01BD01CF010895A29FB001B39F49
S1130BF0C001A39F700D811D1124911DB29F700D22
S1130C00811D1124911D0895F0DFA59F900DB49FBF
S1130C10900DA49F800D911D11240895F894FFCF89
S1130C20456E746572204D6F746F72202841424383
S1130C3029206F72204428616C6C292C204475741F
S1130C4079204379636C652C205468656E20467264
S1130C50657175656E63792E204869742027656E09
S1130C607465722720696E206265747765656E20ED
S1130C70656163682E0A00736572766F20285329B4
S1130C802C206D6F746F7220284D290A00456E74F4
S1130C9065722044656772656520666F72207365AE
S1130CA072766F202830202D20313830290A003008
S10B0CB0303030303731000010
S9030000FC
