S0170000576173685F4D435F5379735F4465762E737265636F
S113000071C0000086C0000084C0000082C00000EF
S113001080C000007EC000007CC000007AC00000E8
S113002078C0000076C0000074C0000072C00000F8
S113003070C000006EC000006CC000006AC0000008
S113004068C0000066C0000064C0000062C0000018
S113005060C000005EC000005CC000005AC0000028
S113006058C0000056C0000054C0000052C0000038
S113007050C000004EC000004CC000004AC0000048
S113008048C0000046C0000044C0000042C0000058
S113009040C000003EC000003CC000003AC0000068
S11300A038C0000036C0000034C0000032C0000078
S11300B030C000002EC000002CC000002AC0000088
S11300C028C0000026C0000024C0000022C0000098
S11300D020C000001EC000001CC000001AC00000A8
S11300E018C0000011241FBECFEFD1E2DEBFCDBF88
S11300F000E00CBF12E0A0E0B2E0ECE5F2E000E0CA
S11301000BBF02C007900D92AC30B107D9F702D0F3
S1130110A3C076CF2DD07ED01BEFCFEFDEEF07EF5D
S11301200099FECF4B99FECF4899FACF18B980D0E9
S1130130C8B981E427D081E425D081E423D0C8B9AB
S1130140D8B976D0C8B918B973D0C8B9D8B981E4C8
S113015019D081E417D081E415D0D8B973D0C8B9C7
S113016083E510D083E50ED083E50CD008B9D8CF51
S113017011B88FEF82B91AB88BB987B988B984B925
S113018085B90895813499F0833509F43CC0089504
S1130190819185B98FE19EE40197F1F700C00000D9
S11301A02E173F07A9F74150510929F416C049E118
S11301B050E028E032E0E0E0F2E0EACF829185B955
S11301C08FE19EE40197F1F700C00000E217F30706
S11301D0A9F74150510929F4089549E150E021E07B
S11301E032E0E9E0F2E0EACF819185B98FED9EE259
S11301F00197F1F700C000002E173F07A9F74150FF
S1130200510929F408954CE251E02CE032E0E8E091
S1130210F2E0EACF16BC8CE987BD14BC15BC089586
S113022085E085BDA99BFECF15BCA99A16BC08958F
S1130230CF93DF93C0E9D1E0F3DF2197E9F7DF91B2
S1130240CF910895CF93DF93C4E6D0E0E9DF2197FF
S10F0250E9F7DF91CF910895F894FFCFF7
S10F025C09080C04060203010903060C47
S9030000FC
