S0120000496E74657272757074732E73726563D2
S113000071C00000D5C00000EAC000007DC000003F
S11300107BC0000079C0000077C0000075C00000FC
S113002073C0000071C000006FC000006DC000000C
S11300306BC0000069C0000067C0000065C000001C
S113004063C0000061C000005FC000005DC000002C
S11300505BC000001DC1000057C0000055C0000077
S113006053C0000051C000004FC000004DC000004C
S11300704BC000005DC0000047C0000045C0000048
S113008043C0000041C000003FC000003DC000006C
S11300903BC0000039C0000037C0000035C000007C
S11300A033C0000031C000002FC000002DC000008C
S11300B02BC0000029C0000027C0000025C000009C
S11300C023C0000021C000001FC000001DC00000AC
S11300D01BC0000019C0000017C0000015C00000BC
S11300E013C0000011241FBECFEFD1E2DEBFCDBF8D
S11300F000E00CBF22E0A0E0B2E001C01D92A930F4
S1130100B207E1F78ED0DCC07BCFECE7F0E0808172
S113011080648083EAE7F0E087E080838081806800
S11301208083808180648083808188608083089557
S11301301F920F920FB60F9211240BB60F922F93AA
S11301408F939F93EF93FF93ECE7F0E020818091EE
S1130150020290910302922F907E892B8083EAE71A
S1130160F0E08081806480838091780090E09093B7
S113017005028093040220917900809104029091F9
S11301800502922B9093050280930402FF91EF9154
S11301909F918F912F910F900BBE0F900FBE0F90D8
S11301A01F9018958FE08093690083E08DBB0895BC
S11301B01F920F920FB60F9211248F938091060213
S11301C08F5F8093060280910602843010F01092B3
S11301D006028F910F900FBE0F901F9018951F92DB
S11301E00F920FB60F9211248F93809106028150C3
S11301F080930602809106028F3F19F483E0809376
S113020006028F910F900FBE0F901F9018951AB889
S11302108FEF8BB910BA81BB80930A0180930B01D5
S1130220089573DFF4DF2AD07894BCDF10920302C0
S11302301092020220E0EBE0F1E08091060290E0EF
S11302409093030280930202809107029091080226
S1130250843F914028F0205810920802109207021F
S113026080910402909105029695879596958795BD
S113027096958795822B80958083DFCF14BC85E08B
S113028085BD16BC80E187BD82E080936E00089531
S11302901F920F920FB60F9211248F939F9316BC47
S11302A0809107029091080201969093080280932E
S11302B007029F918F910F900FBE0F901F9018957A
S10702C0F894FFCFDC
S9030000FC
