S00B000050574D2E7372656325
S113000071C0000079C0000077C0000075C0000016
S113001073C0000071C000006FC000006DC000001C
S11300206BC0000069C0000067C0000065C000002C
S113003063C0000061C000005FC000005DC000003C
S11300405BC0000059C0000057C0000055C000004C
S113005053C0000051C000004FC000004DC000005C
S11300604BC0000049C0000047C0000045C000006C
S113007043C0000041C000003FC000003DC000007C
S11300803BC0000039C0000037C0000035C000008C
S113009033C0000031C000002FC000002DC000009C
S11300A02BC0000029C0000027C0000025C00000AC
S11300B023C0000021C000001FC000001DC00000BC
S11300C01BC0000019C0000017C0000015C00000CC
S11300D013C0000011C000000FC000000DC00000DC
S11300E00BC0000011241FBECFEFD1E2DEBFCDBF95
S11300F000E00CBFBED06FC183CFCF93DF93CDB7E9
S1130100DEB780E990E023E8FC01208381E990E0F8
S11301102CE0FC0120830000DF91CF910895CF9360
S1130120DF9300D0CDB7DEB78B8380E990E020E980
S113013030E0F90120812068FC0120838B81882F25
S113014090E0A0E0B0E0072E7AE0880F991FAA1F84
S1130150BB1F7A95D1F7702D24E630E040E050E0E3
S1130160BC01CD0116D1DA01C9019A83898388E9DA
S113017090E029813A81FC013183208381E990E078
S113018021E930E0F90120812460FC012083000092
S11301900F900F900F90DF91CF910895CF93DF933D
S11301A000D01F92CDB7DEB78AE090E09A838983AE
S11301B01B820DC089819A810A969A8389838981D9
S11301C0AEDF88EE93E0C5D08B818F5F8B838B810C
S11301D0883080F38981A3DF88E893E1BAD08FE087
S11301E08C830DC089819A8106979A83898389813A
S11301F096DF88EE93E0ADD08C8181508C838C8126
S1130200882381F700000F900F900F900F90DF91DB
S1130210CF910895CF93DF93CDB7DEB781E290E01D
S1130220FC01108282E290E02FEFFC01208387E240
S113023090E02FEFFC01208388E290E02FEFFC0197
S1130240208384E290E02FEFFC01208385E290E09C
S11302502FEFFC0120838DE290E02FEFFC0120833F
S11302608EE290E02FEFFC0120830000DF91CF911C
S11302700895CF93DF93CDB7DEB7CCDF28D03DDF31
S113028001C08CDF80E290E0FC018081882F90E047
S113029081709927892BA9F302C080E040DF80E2B6
S11302A090E0FC018081882F90E082709927892B4F
S11302B0A1F302C080E033DF80E290E0FC018081A2
S11302C0882F90E084709927892BA1F3D9CFCF93FD
S11302D0DF93CDB7DEB786E490E0FC01108287E4BB
S11302E090E020E1FC01208384E490E0FC01108292
S11302F085E490E0FC0110820000DF91CF91089525
S1130300CF93DF93CDB7DEB785E490E025E0FC0121
S11303102083000085E390E0FC018081882F90E039
S113032082709927892BB1F385E490E0FC01108257
S113033085E390E025E330E0F90120812260FC01AF
S1130340208386E490E0FC0110820000DF91CF91CD
S11303500895CF93DF9300D01F92CDB7DEB79C836F
S11303608B831A82198206C0CBDF89819A81019618
S11303709A83898329813A818B819C812817390743
S113038098F300000F900F900F900F90DF91CF9192
S11303900895A1E21A2EAA1BBB1BFD010DC0AA1FC2
S11303A0BB1FEE1FFF1FA217B307E407F50720F0DA
S11303B0A21BB30BE40BF50B661F771F881F991F55
S11303C01A9469F760957095809590959B01AC019E
S10D03D0BD01CF010895F894FFCF9A
S9030000FC
